{
	"Daulat-Projects/View.sol": {
		"View": {
			"abi": [
				{
					"inputs": [],
					"name": "getResult",
					"outputs": [
						{
							"internalType": "uint256",
							"name": "",
							"type": "uint256"
						},
						{
							"internalType": "uint256",
							"name": "",
							"type": "uint256"
						}
					],
					"stateMutability": "view",
					"type": "function"
				},
				{
					"inputs": [],
					"name": "result",
					"outputs": [
						{
							"internalType": "uint256",
							"name": "product",
							"type": "uint256"
						},
						{
							"internalType": "uint256",
							"name": "total",
							"type": "uint256"
						}
					],
					"stateMutability": "view",
					"type": "function"
				}
			],
			"devdoc": {
				"kind": "dev",
				"methods": {},
				"version": 1
			},
			"evm": {
				"assembly": "    /* \"Daulat-Projects/View.sol\":61:391  contract View{... */\n  mstore(0x40, 0x80)\n    /* \"Daulat-Projects/View.sol\":93:94  5 */\n  0x05\n    /* \"Daulat-Projects/View.sol\":81:94  uint Num1 = 5 */\n  0x00\n  sstore\n    /* \"Daulat-Projects/View.sol\":113:115  89 */\n  0x59\n    /* \"Daulat-Projects/View.sol\":101:115  uint Num2 = 89 */\n  0x01\n  sstore\n    /* \"Daulat-Projects/View.sol\":61:391  contract View{... */\n  callvalue\n  dup1\n  iszero\n  tag_1\n  jumpi\n  0x00\n  dup1\n  revert\ntag_1:\n  pop\n  dataSize(sub_0)\n  dup1\n  dataOffset(sub_0)\n  0x00\n  codecopy\n  0x00\n  return\nstop\n\nsub_0: assembly {\n        /* \"Daulat-Projects/View.sol\":61:391  contract View{... */\n      mstore(0x40, 0x80)\n      callvalue\n      dup1\n      iszero\n      tag_1\n      jumpi\n      0x00\n      dup1\n      revert\n    tag_1:\n      pop\n      jumpi(tag_2, lt(calldatasize, 0x04))\n      shr(0xe0, calldataload(0x00))\n      dup1\n      0x65372147\n      eq\n      tag_3\n      jumpi\n      dup1\n      0xde292789\n      eq\n      tag_4\n      jumpi\n    tag_2:\n      0x00\n      dup1\n      revert\n        /* \"Daulat-Projects/View.sol\":220:388  function result() public view returns (uint product, uint total){... */\n    tag_3:\n      tag_5\n      tag_6\n      jump\t// in\n    tag_5:\n      mload(0x40)\n      tag_7\n      swap3\n      swap2\n      swap1\n      tag_8\n      jump\t// in\n    tag_7:\n      mload(0x40)\n      dup1\n      swap2\n      sub\n      swap1\n      return\n        /* \"Daulat-Projects/View.sol\":124:212  function getResult() public view returns(uint,uint){... */\n    tag_4:\n      tag_9\n      tag_10\n      jump\t// in\n    tag_9:\n      mload(0x40)\n      tag_11\n      swap3\n      swap2\n      swap1\n      tag_8\n      jump\t// in\n    tag_11:\n      mload(0x40)\n      dup1\n      swap2\n      sub\n      swap1\n      return\n        /* \"Daulat-Projects/View.sol\":220:388  function result() public view returns (uint product, uint total){... */\n    tag_6:\n        /* \"Daulat-Projects/View.sol\":259:271  uint product */\n      0x00\n        /* \"Daulat-Projects/View.sol\":273:283  uint total */\n      dup1\n        /* \"Daulat-Projects/View.sol\":312:316  Num2 */\n      sload(0x01)\n        /* \"Daulat-Projects/View.sol\":305:309  Num1 */\n      sload(0x00)\n        /* \"Daulat-Projects/View.sol\":305:316  Num1 * Num2 */\n      tag_13\n      swap2\n      swap1\n      tag_14\n      jump\t// in\n    tag_13:\n        /* \"Daulat-Projects/View.sol\":295:316  product = Num1 * Num2 */\n      swap2\n      pop\n        /* \"Daulat-Projects/View.sol\":342:346  Num2 */\n      sload(0x01)\n        /* \"Daulat-Projects/View.sol\":335:339  Num1 */\n      sload(0x00)\n        /* \"Daulat-Projects/View.sol\":335:346  Num1 + Num2 */\n      tag_15\n      swap2\n      swap1\n      tag_16\n      jump\t// in\n    tag_15:\n        /* \"Daulat-Projects/View.sol\":327:346  total = Num1 + Num2 */\n      swap1\n      pop\n        /* \"Daulat-Projects/View.sol\":220:388  function result() public view returns (uint product, uint total){... */\n      swap1\n      swap2\n      jump\t// out\n        /* \"Daulat-Projects/View.sol\":124:212  function getResult() public view returns(uint,uint){... */\n    tag_10:\n        /* \"Daulat-Projects/View.sol\":165:169  uint */\n      0x00\n        /* \"Daulat-Projects/View.sol\":170:174  uint */\n      dup1\n        /* \"Daulat-Projects/View.sol\":193:197  Num1 */\n      sload(0x00)\n        /* \"Daulat-Projects/View.sol\":199:203  Num2 */\n      sload(0x01)\n        /* \"Daulat-Projects/View.sol\":186:204  return(Num1, Num2) */\n      swap2\n      pop\n      swap2\n      pop\n        /* \"Daulat-Projects/View.sol\":124:212  function getResult() public view returns(uint,uint){... */\n      swap1\n      swap2\n      jump\t// out\n        /* \"#utility.yul\":7:84   */\n    tag_18:\n        /* \"#utility.yul\":44:51   */\n      0x00\n        /* \"#utility.yul\":73:78   */\n      dup2\n        /* \"#utility.yul\":62:78   */\n      swap1\n      pop\n        /* \"#utility.yul\":7:84   */\n      swap2\n      swap1\n      pop\n      jump\t// out\n        /* \"#utility.yul\":90:208   */\n    tag_19:\n        /* \"#utility.yul\":177:201   */\n      tag_24\n        /* \"#utility.yul\":195:200   */\n      dup2\n        /* \"#utility.yul\":177:201   */\n      tag_18\n      jump\t// in\n    tag_24:\n        /* \"#utility.yul\":172:175   */\n      dup3\n        /* \"#utility.yul\":165:202   */\n      mstore\n        /* \"#utility.yul\":90:208   */\n      pop\n      pop\n      jump\t// out\n        /* \"#utility.yul\":214:546   */\n    tag_8:\n        /* \"#utility.yul\":335:339   */\n      0x00\n        /* \"#utility.yul\":373:375   */\n      0x40\n        /* \"#utility.yul\":362:371   */\n      dup3\n        /* \"#utility.yul\":358:376   */\n      add\n        /* \"#utility.yul\":350:376   */\n      swap1\n      pop\n        /* \"#utility.yul\":386:457   */\n      tag_26\n        /* \"#utility.yul\":454:455   */\n      0x00\n        /* \"#utility.yul\":443:452   */\n      dup4\n        /* \"#utility.yul\":439:456   */\n      add\n        /* \"#utility.yul\":430:436   */\n      dup6\n        /* \"#utility.yul\":386:457   */\n      tag_19\n      jump\t// in\n    tag_26:\n        /* \"#utility.yul\":467:539   */\n      tag_27\n        /* \"#utility.yul\":535:537   */\n      0x20\n        /* \"#utility.yul\":524:533   */\n      dup4\n        /* \"#utility.yul\":520:538   */\n      add\n        /* \"#utility.yul\":511:517   */\n      dup5\n        /* \"#utility.yul\":467:539   */\n      tag_19\n      jump\t// in\n    tag_27:\n        /* \"#utility.yul\":214:546   */\n      swap4\n      swap3\n      pop\n      pop\n      pop\n      jump\t// out\n        /* \"#utility.yul\":552:732   */\n    tag_20:\n        /* \"#utility.yul\":600:677   */\n      0x4e487b7100000000000000000000000000000000000000000000000000000000\n        /* \"#utility.yul\":597:598   */\n      0x00\n        /* \"#utility.yul\":590:678   */\n      mstore\n        /* \"#utility.yul\":697:701   */\n      0x11\n        /* \"#utility.yul\":694:695   */\n      0x04\n        /* \"#utility.yul\":687:702   */\n      mstore\n        /* \"#utility.yul\":721:725   */\n      0x24\n        /* \"#utility.yul\":718:719   */\n      0x00\n        /* \"#utility.yul\":711:726   */\n      revert\n        /* \"#utility.yul\":738:1148   */\n    tag_14:\n        /* \"#utility.yul\":778:785   */\n      0x00\n        /* \"#utility.yul\":801:821   */\n      tag_30\n        /* \"#utility.yul\":819:820   */\n      dup3\n        /* \"#utility.yul\":801:821   */\n      tag_18\n      jump\t// in\n    tag_30:\n        /* \"#utility.yul\":796:821   */\n      swap2\n      pop\n        /* \"#utility.yul\":835:855   */\n      tag_31\n        /* \"#utility.yul\":853:854   */\n      dup4\n        /* \"#utility.yul\":835:855   */\n      tag_18\n      jump\t// in\n    tag_31:\n        /* \"#utility.yul\":830:855   */\n      swap3\n      pop\n        /* \"#utility.yul\":890:891   */\n      dup3\n        /* \"#utility.yul\":887:888   */\n      dup3\n        /* \"#utility.yul\":883:892   */\n      mul\n        /* \"#utility.yul\":912:942   */\n      tag_32\n        /* \"#utility.yul\":930:941   */\n      dup2\n        /* \"#utility.yul\":912:942   */\n      tag_18\n      jump\t// in\n    tag_32:\n        /* \"#utility.yul\":901:942   */\n      swap2\n      pop\n        /* \"#utility.yul\":1091:1092   */\n      dup3\n        /* \"#utility.yul\":1082:1089   */\n      dup3\n        /* \"#utility.yul\":1078:1093   */\n      div\n        /* \"#utility.yul\":1075:1076   */\n      dup5\n        /* \"#utility.yul\":1072:1094   */\n      eq\n        /* \"#utility.yul\":1052:1053   */\n      dup4\n        /* \"#utility.yul\":1045:1054   */\n      iszero\n        /* \"#utility.yul\":1025:1108   */\n      or\n        /* \"#utility.yul\":1002:1141   */\n      tag_33\n      jumpi\n        /* \"#utility.yul\":1121:1139   */\n      tag_34\n      tag_20\n      jump\t// in\n    tag_34:\n        /* \"#utility.yul\":1002:1141   */\n    tag_33:\n        /* \"#utility.yul\":786:1148   */\n      pop\n        /* \"#utility.yul\":738:1148   */\n      swap3\n      swap2\n      pop\n      pop\n      jump\t// out\n        /* \"#utility.yul\":1154:1345   */\n    tag_16:\n        /* \"#utility.yul\":1194:1197   */\n      0x00\n        /* \"#utility.yul\":1213:1233   */\n      tag_36\n        /* \"#utility.yul\":1231:1232   */\n      dup3\n        /* \"#utility.yul\":1213:1233   */\n      tag_18\n      jump\t// in\n    tag_36:\n        /* \"#utility.yul\":1208:1233   */\n      swap2\n      pop\n        /* \"#utility.yul\":1247:1267   */\n      tag_37\n        /* \"#utility.yul\":1265:1266   */\n      dup4\n        /* \"#utility.yul\":1247:1267   */\n      tag_18\n      jump\t// in\n    tag_37:\n        /* \"#utility.yul\":1242:1267   */\n      swap3\n      pop\n        /* \"#utility.yul\":1290:1291   */\n      dup3\n        /* \"#utility.yul\":1287:1288   */\n      dup3\n        /* \"#utility.yul\":1283:1292   */\n      add\n        /* \"#utility.yul\":1276:1292   */\n      swap1\n      pop\n        /* \"#utility.yul\":1311:1314   */\n      dup1\n        /* \"#utility.yul\":1308:1309   */\n      dup3\n        /* \"#utility.yul\":1305:1315   */\n      gt\n        /* \"#utility.yul\":1302:1338   */\n      iszero\n      tag_38\n      jumpi\n        /* \"#utility.yul\":1318:1336   */\n      tag_39\n      tag_20\n      jump\t// in\n    tag_39:\n        /* \"#utility.yul\":1302:1338   */\n    tag_38:\n        /* \"#utility.yul\":1154:1345   */\n      swap3\n      swap2\n      pop\n      pop\n      jump\t// out\n\n    auxdata: 0xa26469706673582212206b11f05dd0b6e802d92485cacab2395a67ece9ec2b3636bfd61f5a8266f727fa64736f6c63430008160033\n}\n",
				"bytecode": {
					"linkReferences": {},
					"object": "608060405260055f556059600155348015610018575f80fd5b506101c3806100265f395ff3fe608060405234801561000f575f80fd5b5060043610610034575f3560e01c80636537214714610038578063de29278914610057575b5f80fd5b610040610076565b60405161004e9291906100c5565b60405180910390f35b61005f61009e565b60405161006d9291906100c5565b60405180910390f35b5f806001545f546100879190610119565b91506001545f54610098919061015a565b90509091565b5f805f54600154915091509091565b5f819050919050565b6100bf816100ad565b82525050565b5f6040820190506100d85f8301856100b6565b6100e560208301846100b6565b9392505050565b7f4e487b71000000000000000000000000000000000000000000000000000000005f52601160045260245ffd5b5f610123826100ad565b915061012e836100ad565b925082820261013c816100ad565b91508282048414831517610153576101526100ec565b5b5092915050565b5f610164826100ad565b915061016f836100ad565b9250828201905080821115610187576101866100ec565b5b9291505056fea26469706673582212206b11f05dd0b6e802d92485cacab2395a67ece9ec2b3636bfd61f5a8266f727fa64736f6c63430008160033",
					"opcodes": "PUSH1 0x80 PUSH1 0x40 MSTORE PUSH1 0x5 PUSH0 SSTORE PUSH1 0x59 PUSH1 0x1 SSTORE CALLVALUE DUP1 ISZERO PUSH2 0x18 JUMPI PUSH0 DUP1 REVERT JUMPDEST POP PUSH2 0x1C3 DUP1 PUSH2 0x26 PUSH0 CODECOPY PUSH0 RETURN INVALID PUSH1 0x80 PUSH1 0x40 MSTORE CALLVALUE DUP1 ISZERO PUSH2 0xF JUMPI PUSH0 DUP1 REVERT JUMPDEST POP PUSH1 0x4 CALLDATASIZE LT PUSH2 0x34 JUMPI PUSH0 CALLDATALOAD PUSH1 0xE0 SHR DUP1 PUSH4 0x65372147 EQ PUSH2 0x38 JUMPI DUP1 PUSH4 0xDE292789 EQ PUSH2 0x57 JUMPI JUMPDEST PUSH0 DUP1 REVERT JUMPDEST PUSH2 0x40 PUSH2 0x76 JUMP JUMPDEST PUSH1 0x40 MLOAD PUSH2 0x4E SWAP3 SWAP2 SWAP1 PUSH2 0xC5 JUMP JUMPDEST PUSH1 0x40 MLOAD DUP1 SWAP2 SUB SWAP1 RETURN JUMPDEST PUSH2 0x5F PUSH2 0x9E JUMP JUMPDEST PUSH1 0x40 MLOAD PUSH2 0x6D SWAP3 SWAP2 SWAP1 PUSH2 0xC5 JUMP JUMPDEST PUSH1 0x40 MLOAD DUP1 SWAP2 SUB SWAP1 RETURN JUMPDEST PUSH0 DUP1 PUSH1 0x1 SLOAD PUSH0 SLOAD PUSH2 0x87 SWAP2 SWAP1 PUSH2 0x119 JUMP JUMPDEST SWAP2 POP PUSH1 0x1 SLOAD PUSH0 SLOAD PUSH2 0x98 SWAP2 SWAP1 PUSH2 0x15A JUMP JUMPDEST SWAP1 POP SWAP1 SWAP2 JUMP JUMPDEST PUSH0 DUP1 PUSH0 SLOAD PUSH1 0x1 SLOAD SWAP2 POP SWAP2 POP SWAP1 SWAP2 JUMP JUMPDEST PUSH0 DUP2 SWAP1 POP SWAP2 SWAP1 POP JUMP JUMPDEST PUSH2 0xBF DUP2 PUSH2 0xAD JUMP JUMPDEST DUP3 MSTORE POP POP JUMP JUMPDEST PUSH0 PUSH1 0x40 DUP3 ADD SWAP1 POP PUSH2 0xD8 PUSH0 DUP4 ADD DUP6 PUSH2 0xB6 JUMP JUMPDEST PUSH2 0xE5 PUSH1 0x20 DUP4 ADD DUP5 PUSH2 0xB6 JUMP JUMPDEST SWAP4 SWAP3 POP POP POP JUMP JUMPDEST PUSH32 0x4E487B7100000000000000000000000000000000000000000000000000000000 PUSH0 MSTORE PUSH1 0x11 PUSH1 0x4 MSTORE PUSH1 0x24 PUSH0 REVERT JUMPDEST PUSH0 PUSH2 0x123 DUP3 PUSH2 0xAD JUMP JUMPDEST SWAP2 POP PUSH2 0x12E DUP4 PUSH2 0xAD JUMP JUMPDEST SWAP3 POP DUP3 DUP3 MUL PUSH2 0x13C DUP2 PUSH2 0xAD JUMP JUMPDEST SWAP2 POP DUP3 DUP3 DIV DUP5 EQ DUP4 ISZERO OR PUSH2 0x153 JUMPI PUSH2 0x152 PUSH2 0xEC JUMP JUMPDEST JUMPDEST POP SWAP3 SWAP2 POP POP JUMP JUMPDEST PUSH0 PUSH2 0x164 DUP3 PUSH2 0xAD JUMP JUMPDEST SWAP2 POP PUSH2 0x16F DUP4 PUSH2 0xAD JUMP JUMPDEST SWAP3 POP DUP3 DUP3 ADD SWAP1 POP DUP1 DUP3 GT ISZERO PUSH2 0x187 JUMPI PUSH2 0x186 PUSH2 0xEC JUMP JUMPDEST JUMPDEST SWAP3 SWAP2 POP POP JUMP INVALID LOG2 PUSH5 0x6970667358 0x22 SLT KECCAK256 PUSH12 0x11F05DD0B6E802D92485CACA 0xB2 CODECOPY GAS PUSH8 0xECE9EC2B3636BFD6 0x1F GAS DUP3 PUSH7 0xF727FA64736F6C PUSH4 0x43000816 STOP CALLER "
				},
				"gasEstimates": {
					"creation": {
						"codeDepositCost": "90200",
						"executionCost": "44350",
						"totalCost": "134550"
					},
					"external": {
						"getResult()": "infinite",
						"result()": "infinite"
					}
				},
				"methodIdentifiers": {
					"getResult()": "de292789",
					"result()": "65372147"
				}
			},
			"storageLayout": {
				"storage": [
					{
						"astId": 4,
						"contract": "Daulat-Projects/View.sol:View",
						"label": "Num1",
						"offset": 0,
						"slot": "0",
						"type": "t_uint256"
					},
					{
						"astId": 7,
						"contract": "Daulat-Projects/View.sol:View",
						"label": "Num2",
						"offset": 0,
						"slot": "1",
						"type": "t_uint256"
					}
				],
				"types": {
					"t_uint256": {
						"encoding": "inplace",
						"label": "uint256",
						"numberOfBytes": "32"
					}
				}
			},
			"userdoc": {
				"kind": "user",
				"methods": {},
				"version": 1
			}
		}
	}
}