{
	"Daulat-Projects/Modifiers.sol": {
		"FunctionModifier": {
			"abi": [
				{
					"inputs": [],
					"stateMutability": "nonpayable",
					"type": "constructor"
				},
				{
					"inputs": [
						{
							"internalType": "address",
							"name": "_newOwner",
							"type": "address"
						}
					],
					"name": "changeOwner",
					"outputs": [],
					"stateMutability": "nonpayable",
					"type": "function"
				},
				{
					"inputs": [
						{
							"internalType": "uint256",
							"name": "i",
							"type": "uint256"
						}
					],
					"name": "decrement",
					"outputs": [],
					"stateMutability": "nonpayable",
					"type": "function"
				},
				{
					"inputs": [],
					"name": "locked",
					"outputs": [
						{
							"internalType": "bool",
							"name": "",
							"type": "bool"
						}
					],
					"stateMutability": "view",
					"type": "function"
				},
				{
					"inputs": [],
					"name": "owner",
					"outputs": [
						{
							"internalType": "address",
							"name": "",
							"type": "address"
						}
					],
					"stateMutability": "view",
					"type": "function"
				},
				{
					"inputs": [],
					"name": "x",
					"outputs": [
						{
							"internalType": "uint256",
							"name": "",
							"type": "uint256"
						}
					],
					"stateMutability": "view",
					"type": "function"
				}
			],
			"devdoc": {
				"kind": "dev",
				"methods": {},
				"version": 1
			},
			"evm": {
				"assembly": "    /* \"Daulat-Projects/Modifiers.sol\":276:1049  contract FunctionModifier{... */\n  mstore(0x40, 0x80)\n    /* \"Daulat-Projects/Modifiers.sol\":353:355  10 */\n  0x0a\n    /* \"Daulat-Projects/Modifiers.sol\":337:355  uint public x = 10 */\n  0x01\n  sstore\n    /* \"Daulat-Projects/Modifiers.sol\":389:439  constructor(){... */\n  callvalue\n  dup1\n  iszero\n  tag_1\n  jumpi\n  0x00\n  dup1\n  revert\ntag_1:\n  pop\n    /* \"Daulat-Projects/Modifiers.sol\":421:431  msg.sender */\n  caller\n    /* \"Daulat-Projects/Modifiers.sol\":413:418  owner */\n  0x00\n  dup1\n    /* \"Daulat-Projects/Modifiers.sol\":413:431  owner = msg.sender */\n  0x0100\n  exp\n  dup2\n  sload\n  dup2\n  0xffffffffffffffffffffffffffffffffffffffff\n  mul\n  not\n  and\n  swap1\n  dup4\n  0xffffffffffffffffffffffffffffffffffffffff\n  and\n  mul\n  or\n  swap1\n  sstore\n  pop\n    /* \"Daulat-Projects/Modifiers.sol\":276:1049  contract FunctionModifier{... */\n  dataSize(sub_0)\n  dup1\n  dataOffset(sub_0)\n  0x00\n  codecopy\n  0x00\n  return\nstop\n\nsub_0: assembly {\n        /* \"Daulat-Projects/Modifiers.sol\":276:1049  contract FunctionModifier{... */\n      mstore(0x40, 0x80)\n      callvalue\n      dup1\n      iszero\n      tag_1\n      jumpi\n      0x00\n      dup1\n      revert\n    tag_1:\n      pop\n      jumpi(tag_2, lt(calldatasize, 0x04))\n      shr(0xe0, calldataload(0x00))\n      dup1\n      0x0c55699c\n      eq\n      tag_3\n      jumpi\n      dup1\n      0x3a9ebefd\n      eq\n      tag_4\n      jumpi\n      dup1\n      0x8da5cb5b\n      eq\n      tag_5\n      jumpi\n      dup1\n      0xa6f9dae1\n      eq\n      tag_6\n      jumpi\n      dup1\n      0xcf309012\n      eq\n      tag_7\n      jumpi\n    tag_2:\n      0x00\n      dup1\n      revert\n        /* \"Daulat-Projects/Modifiers.sol\":337:355  uint public x = 10 */\n    tag_3:\n      tag_8\n      tag_9\n      jump\t// in\n    tag_8:\n      mload(0x40)\n      tag_10\n      swap2\n      swap1\n      tag_11\n      jump\t// in\n    tag_10:\n      mload(0x40)\n      dup1\n      swap2\n      sub\n      swap1\n      return\n        /* \"Daulat-Projects/Modifiers.sol\":913:1046  function decrement(uint i) public noReentrancy{... */\n    tag_4:\n      tag_12\n      0x04\n      dup1\n      calldatasize\n      sub\n      dup2\n      add\n      swap1\n      tag_13\n      swap2\n      swap1\n      tag_14\n      jump\t// in\n    tag_13:\n      tag_15\n      jump\t// in\n    tag_12:\n      stop\n        /* \"Daulat-Projects/Modifiers.sol\":310:330  address public owner */\n    tag_5:\n      tag_16\n      tag_17\n      jump\t// in\n    tag_16:\n      mload(0x40)\n      tag_18\n      swap2\n      swap1\n      tag_19\n      jump\t// in\n    tag_18:\n      mload(0x40)\n      dup1\n      swap2\n      sub\n      swap1\n      return\n        /* \"Daulat-Projects/Modifiers.sol\":669:785  function changeOwner(address _newOwner) public onlyOwner validateData(_newOwner){... */\n    tag_6:\n      tag_20\n      0x04\n      dup1\n      calldatasize\n      sub\n      dup2\n      add\n      swap1\n      tag_21\n      swap2\n      swap1\n      tag_22\n      jump\t// in\n    tag_21:\n      tag_23\n      jump\t// in\n    tag_20:\n      stop\n        /* \"Daulat-Projects/Modifiers.sol\":362:380  bool public locked */\n    tag_7:\n      tag_24\n      tag_25\n      jump\t// in\n    tag_24:\n      mload(0x40)\n      tag_26\n      swap2\n      swap1\n      tag_27\n      jump\t// in\n    tag_26:\n      mload(0x40)\n      dup1\n      swap2\n      sub\n      swap1\n      return\n        /* \"Daulat-Projects/Modifiers.sol\":337:355  uint public x = 10 */\n    tag_9:\n      sload(0x01)\n      dup2\n      jump\t// out\n        /* \"Daulat-Projects/Modifiers.sol\":913:1046  function decrement(uint i) public noReentrancy{... */\n    tag_15:\n        /* \"Daulat-Projects/Modifiers.sol\":836:842  locked */\n      0x02\n      0x00\n      swap1\n      sload\n      swap1\n      0x0100\n      exp\n      swap1\n      div\n      0xff\n      and\n        /* \"Daulat-Projects/Modifiers.sol\":835:842  !locked */\n      iszero\n        /* \"Daulat-Projects/Modifiers.sol\":827:861  require(!locked, \"No Re-entrancy\") */\n      tag_29\n      jumpi\n      mload(0x40)\n      0x08c379a000000000000000000000000000000000000000000000000000000000\n      dup2\n      mstore\n      0x04\n      add\n      tag_30\n      swap1\n      tag_31\n      jump\t// in\n    tag_30:\n      mload(0x40)\n      dup1\n      swap2\n      sub\n      swap1\n      revert\n    tag_29:\n        /* \"Daulat-Projects/Modifiers.sol\":881:885  true */\n      0x01\n        /* \"Daulat-Projects/Modifiers.sol\":872:878  locked */\n      0x02\n      0x00\n        /* \"Daulat-Projects/Modifiers.sol\":872:885  locked = true */\n      0x0100\n      exp\n      dup2\n      sload\n      dup2\n      0xff\n      mul\n      not\n      and\n      swap1\n      dup4\n      iszero\n      iszero\n      mul\n      or\n      swap1\n      sstore\n      pop\n        /* \"Daulat-Projects/Modifiers.sol\":975:976  1 */\n      0x01\n        /* \"Daulat-Projects/Modifiers.sol\":970:971  x */\n      dup1\n      0x00\n        /* \"Daulat-Projects/Modifiers.sol\":970:976  x -= 1 */\n      dup3\n      dup3\n      sload\n      tag_33\n      swap2\n      swap1\n      tag_34\n      jump\t// in\n    tag_33:\n      swap3\n      pop\n      pop\n      dup2\n      swap1\n      sstore\n      pop\n        /* \"Daulat-Projects/Modifiers.sol\":994:995  1 */\n      0x01\n        /* \"Daulat-Projects/Modifiers.sol\":990:991  i */\n      dup2\n        /* \"Daulat-Projects/Modifiers.sol\":990:995  i > 1 */\n      gt\n        /* \"Daulat-Projects/Modifiers.sol\":987:1039  if(i > 1){... */\n      iszero\n      tag_35\n      jumpi\n        /* \"Daulat-Projects/Modifiers.sol\":1011:1027  decrement(i - 1) */\n      tag_36\n        /* \"Daulat-Projects/Modifiers.sol\":1025:1026  1 */\n      0x01\n        /* \"Daulat-Projects/Modifiers.sol\":1021:1022  i */\n      dup3\n        /* \"Daulat-Projects/Modifiers.sol\":1021:1026  i - 1 */\n      tag_37\n      swap2\n      swap1\n      tag_34\n      jump\t// in\n    tag_37:\n        /* \"Daulat-Projects/Modifiers.sol\":1011:1020  decrement */\n      tag_15\n        /* \"Daulat-Projects/Modifiers.sol\":1011:1027  decrement(i - 1) */\n      jump\t// in\n    tag_36:\n        /* \"Daulat-Projects/Modifiers.sol\":987:1039  if(i > 1){... */\n    tag_35:\n        /* \"Daulat-Projects/Modifiers.sol\":913:1046  function decrement(uint i) public noReentrancy{... */\n      pop\n      jump\t// out\n        /* \"Daulat-Projects/Modifiers.sol\":310:330  address public owner */\n    tag_17:\n      0x00\n      dup1\n      sload\n      swap1\n      0x0100\n      exp\n      swap1\n      div\n      0xffffffffffffffffffffffffffffffffffffffff\n      and\n      dup2\n      jump\t// out\n        /* \"Daulat-Projects/Modifiers.sol\":669:785  function changeOwner(address _newOwner) public onlyOwner validateData(_newOwner){... */\n    tag_23:\n        /* \"Daulat-Projects/Modifiers.sol\":500:505  owner */\n      0x00\n      dup1\n      sload\n      swap1\n      0x0100\n      exp\n      swap1\n      div\n      0xffffffffffffffffffffffffffffffffffffffff\n      and\n        /* \"Daulat-Projects/Modifiers.sol\":486:505  msg.sender == owner */\n      0xffffffffffffffffffffffffffffffffffffffff\n      and\n        /* \"Daulat-Projects/Modifiers.sol\":486:496  msg.sender */\n      caller\n        /* \"Daulat-Projects/Modifiers.sol\":486:505  msg.sender == owner */\n      0xffffffffffffffffffffffffffffffffffffffff\n      and\n      eq\n        /* \"Daulat-Projects/Modifiers.sol\":478:519  require(msg.sender == owner, \"Not Owner\") */\n      tag_39\n      jumpi\n      mload(0x40)\n      0x08c379a000000000000000000000000000000000000000000000000000000000\n      dup2\n      mstore\n      0x04\n      add\n      tag_40\n      swap1\n      tag_41\n      jump\t// in\n    tag_40:\n      mload(0x40)\n      dup1\n      swap2\n      sub\n      swap1\n      revert\n    tag_39:\n        /* \"Daulat-Projects/Modifiers.sol\":739:748  _newOwner */\n      dup1\n        /* \"Daulat-Projects/Modifiers.sol\":619:620  0 */\n      0x00\n        /* \"Daulat-Projects/Modifiers.sol\":602:621  _addr != address(0) */\n      0xffffffffffffffffffffffffffffffffffffffff\n      and\n        /* \"Daulat-Projects/Modifiers.sol\":602:607  _addr */\n      dup2\n        /* \"Daulat-Projects/Modifiers.sol\":602:621  _addr != address(0) */\n      0xffffffffffffffffffffffffffffffffffffffff\n      and\n      sub\n        /* \"Daulat-Projects/Modifiers.sol\":594:641  require(_addr != address(0), \"Invalid Address\") */\n      tag_43\n      jumpi\n      mload(0x40)\n      0x08c379a000000000000000000000000000000000000000000000000000000000\n      dup2\n      mstore\n      0x04\n      add\n      tag_44\n      swap1\n      tag_45\n      jump\t// in\n    tag_44:\n      mload(0x40)\n      dup1\n      swap2\n      sub\n      swap1\n      revert\n    tag_43:\n        /* \"Daulat-Projects/Modifiers.sol\":768:777  _newOwner */\n      dup2\n        /* \"Daulat-Projects/Modifiers.sol\":760:765  owner */\n      0x00\n      dup1\n        /* \"Daulat-Projects/Modifiers.sol\":760:777  owner = _newOwner */\n      0x0100\n      exp\n      dup2\n      sload\n      dup2\n      0xffffffffffffffffffffffffffffffffffffffff\n      mul\n      not\n      and\n      swap1\n      dup4\n      0xffffffffffffffffffffffffffffffffffffffff\n      and\n      mul\n      or\n      swap1\n      sstore\n      pop\n        /* \"Daulat-Projects/Modifiers.sol\":530:531  _ */\n      pop\n        /* \"Daulat-Projects/Modifiers.sol\":669:785  function changeOwner(address _newOwner) public onlyOwner validateData(_newOwner){... */\n      pop\n      jump\t// out\n        /* \"Daulat-Projects/Modifiers.sol\":362:380  bool public locked */\n    tag_25:\n      0x02\n      0x00\n      swap1\n      sload\n      swap1\n      0x0100\n      exp\n      swap1\n      div\n      0xff\n      and\n      dup2\n      jump\t// out\n        /* \"#utility.yul\":7:84   */\n    tag_47:\n        /* \"#utility.yul\":44:51   */\n      0x00\n        /* \"#utility.yul\":73:78   */\n      dup2\n        /* \"#utility.yul\":62:78   */\n      swap1\n      pop\n        /* \"#utility.yul\":7:84   */\n      swap2\n      swap1\n      pop\n      jump\t// out\n        /* \"#utility.yul\":90:208   */\n    tag_48:\n        /* \"#utility.yul\":177:201   */\n      tag_72\n        /* \"#utility.yul\":195:200   */\n      dup2\n        /* \"#utility.yul\":177:201   */\n      tag_47\n      jump\t// in\n    tag_72:\n        /* \"#utility.yul\":172:175   */\n      dup3\n        /* \"#utility.yul\":165:202   */\n      mstore\n        /* \"#utility.yul\":90:208   */\n      pop\n      pop\n      jump\t// out\n        /* \"#utility.yul\":214:436   */\n    tag_11:\n        /* \"#utility.yul\":307:311   */\n      0x00\n        /* \"#utility.yul\":345:347   */\n      0x20\n        /* \"#utility.yul\":334:343   */\n      dup3\n        /* \"#utility.yul\":330:348   */\n      add\n        /* \"#utility.yul\":322:348   */\n      swap1\n      pop\n        /* \"#utility.yul\":358:429   */\n      tag_74\n        /* \"#utility.yul\":426:427   */\n      0x00\n        /* \"#utility.yul\":415:424   */\n      dup4\n        /* \"#utility.yul\":411:428   */\n      add\n        /* \"#utility.yul\":402:408   */\n      dup5\n        /* \"#utility.yul\":358:429   */\n      tag_48\n      jump\t// in\n    tag_74:\n        /* \"#utility.yul\":214:436   */\n      swap3\n      swap2\n      pop\n      pop\n      jump\t// out\n        /* \"#utility.yul\":523:640   */\n    tag_50:\n        /* \"#utility.yul\":632:633   */\n      0x00\n        /* \"#utility.yul\":629:630   */\n      dup1\n        /* \"#utility.yul\":622:634   */\n      revert\n        /* \"#utility.yul\":769:891   */\n    tag_52:\n        /* \"#utility.yul\":842:866   */\n      tag_79\n        /* \"#utility.yul\":860:865   */\n      dup2\n        /* \"#utility.yul\":842:866   */\n      tag_47\n      jump\t// in\n    tag_79:\n        /* \"#utility.yul\":835:840   */\n      dup2\n        /* \"#utility.yul\":832:867   */\n      eq\n        /* \"#utility.yul\":822:885   */\n      tag_80\n      jumpi\n        /* \"#utility.yul\":881:882   */\n      0x00\n        /* \"#utility.yul\":878:879   */\n      dup1\n        /* \"#utility.yul\":871:883   */\n      revert\n        /* \"#utility.yul\":822:885   */\n    tag_80:\n        /* \"#utility.yul\":769:891   */\n      pop\n      jump\t// out\n        /* \"#utility.yul\":897:1036   */\n    tag_53:\n        /* \"#utility.yul\":943:948   */\n      0x00\n        /* \"#utility.yul\":981:987   */\n      dup2\n        /* \"#utility.yul\":968:988   */\n      calldataload\n        /* \"#utility.yul\":959:988   */\n      swap1\n      pop\n        /* \"#utility.yul\":997:1030   */\n      tag_82\n        /* \"#utility.yul\":1024:1029   */\n      dup2\n        /* \"#utility.yul\":997:1030   */\n      tag_52\n      jump\t// in\n    tag_82:\n        /* \"#utility.yul\":897:1036   */\n      swap3\n      swap2\n      pop\n      pop\n      jump\t// out\n        /* \"#utility.yul\":1042:1371   */\n    tag_14:\n        /* \"#utility.yul\":1101:1107   */\n      0x00\n        /* \"#utility.yul\":1150:1152   */\n      0x20\n        /* \"#utility.yul\":1138:1147   */\n      dup3\n        /* \"#utility.yul\":1129:1136   */\n      dup5\n        /* \"#utility.yul\":1125:1148   */\n      sub\n        /* \"#utility.yul\":1121:1153   */\n      slt\n        /* \"#utility.yul\":1118:1237   */\n      iszero\n      tag_84\n      jumpi\n        /* \"#utility.yul\":1156:1235   */\n      tag_85\n      tag_50\n      jump\t// in\n    tag_85:\n        /* \"#utility.yul\":1118:1237   */\n    tag_84:\n        /* \"#utility.yul\":1276:1277   */\n      0x00\n        /* \"#utility.yul\":1301:1354   */\n      tag_86\n        /* \"#utility.yul\":1346:1353   */\n      dup5\n        /* \"#utility.yul\":1337:1343   */\n      dup3\n        /* \"#utility.yul\":1326:1335   */\n      dup6\n        /* \"#utility.yul\":1322:1344   */\n      add\n        /* \"#utility.yul\":1301:1354   */\n      tag_53\n      jump\t// in\n    tag_86:\n        /* \"#utility.yul\":1291:1354   */\n      swap2\n      pop\n        /* \"#utility.yul\":1247:1364   */\n      pop\n        /* \"#utility.yul\":1042:1371   */\n      swap3\n      swap2\n      pop\n      pop\n      jump\t// out\n        /* \"#utility.yul\":1377:1503   */\n    tag_54:\n        /* \"#utility.yul\":1414:1421   */\n      0x00\n        /* \"#utility.yul\":1454:1496   */\n      0xffffffffffffffffffffffffffffffffffffffff\n        /* \"#utility.yul\":1447:1452   */\n      dup3\n        /* \"#utility.yul\":1443:1497   */\n      and\n        /* \"#utility.yul\":1432:1497   */\n      swap1\n      pop\n        /* \"#utility.yul\":1377:1503   */\n      swap2\n      swap1\n      pop\n      jump\t// out\n        /* \"#utility.yul\":1509:1605   */\n    tag_55:\n        /* \"#utility.yul\":1546:1553   */\n      0x00\n        /* \"#utility.yul\":1575:1599   */\n      tag_89\n        /* \"#utility.yul\":1593:1598   */\n      dup3\n        /* \"#utility.yul\":1575:1599   */\n      tag_54\n      jump\t// in\n    tag_89:\n        /* \"#utility.yul\":1564:1599   */\n      swap1\n      pop\n        /* \"#utility.yul\":1509:1605   */\n      swap2\n      swap1\n      pop\n      jump\t// out\n        /* \"#utility.yul\":1611:1729   */\n    tag_56:\n        /* \"#utility.yul\":1698:1722   */\n      tag_91\n        /* \"#utility.yul\":1716:1721   */\n      dup2\n        /* \"#utility.yul\":1698:1722   */\n      tag_55\n      jump\t// in\n    tag_91:\n        /* \"#utility.yul\":1693:1696   */\n      dup3\n        /* \"#utility.yul\":1686:1723   */\n      mstore\n        /* \"#utility.yul\":1611:1729   */\n      pop\n      pop\n      jump\t// out\n        /* \"#utility.yul\":1735:1957   */\n    tag_19:\n        /* \"#utility.yul\":1828:1832   */\n      0x00\n        /* \"#utility.yul\":1866:1868   */\n      0x20\n        /* \"#utility.yul\":1855:1864   */\n      dup3\n        /* \"#utility.yul\":1851:1869   */\n      add\n        /* \"#utility.yul\":1843:1869   */\n      swap1\n      pop\n        /* \"#utility.yul\":1879:1950   */\n      tag_93\n        /* \"#utility.yul\":1947:1948   */\n      0x00\n        /* \"#utility.yul\":1936:1945   */\n      dup4\n        /* \"#utility.yul\":1932:1949   */\n      add\n        /* \"#utility.yul\":1923:1929   */\n      dup5\n        /* \"#utility.yul\":1879:1950   */\n      tag_56\n      jump\t// in\n    tag_93:\n        /* \"#utility.yul\":1735:1957   */\n      swap3\n      swap2\n      pop\n      pop\n      jump\t// out\n        /* \"#utility.yul\":1963:2085   */\n    tag_57:\n        /* \"#utility.yul\":2036:2060   */\n      tag_95\n        /* \"#utility.yul\":2054:2059   */\n      dup2\n        /* \"#utility.yul\":2036:2060   */\n      tag_55\n      jump\t// in\n    tag_95:\n        /* \"#utility.yul\":2029:2034   */\n      dup2\n        /* \"#utility.yul\":2026:2061   */\n      eq\n        /* \"#utility.yul\":2016:2079   */\n      tag_96\n      jumpi\n        /* \"#utility.yul\":2075:2076   */\n      0x00\n        /* \"#utility.yul\":2072:2073   */\n      dup1\n        /* \"#utility.yul\":2065:2077   */\n      revert\n        /* \"#utility.yul\":2016:2079   */\n    tag_96:\n        /* \"#utility.yul\":1963:2085   */\n      pop\n      jump\t// out\n        /* \"#utility.yul\":2091:2230   */\n    tag_58:\n        /* \"#utility.yul\":2137:2142   */\n      0x00\n        /* \"#utility.yul\":2175:2181   */\n      dup2\n        /* \"#utility.yul\":2162:2182   */\n      calldataload\n        /* \"#utility.yul\":2153:2182   */\n      swap1\n      pop\n        /* \"#utility.yul\":2191:2224   */\n      tag_98\n        /* \"#utility.yul\":2218:2223   */\n      dup2\n        /* \"#utility.yul\":2191:2224   */\n      tag_57\n      jump\t// in\n    tag_98:\n        /* \"#utility.yul\":2091:2230   */\n      swap3\n      swap2\n      pop\n      pop\n      jump\t// out\n        /* \"#utility.yul\":2236:2565   */\n    tag_22:\n        /* \"#utility.yul\":2295:2301   */\n      0x00\n        /* \"#utility.yul\":2344:2346   */\n      0x20\n        /* \"#utility.yul\":2332:2341   */\n      dup3\n        /* \"#utility.yul\":2323:2330   */\n      dup5\n        /* \"#utility.yul\":2319:2342   */\n      sub\n        /* \"#utility.yul\":2315:2347   */\n      slt\n        /* \"#utility.yul\":2312:2431   */\n      iszero\n      tag_100\n      jumpi\n        /* \"#utility.yul\":2350:2429   */\n      tag_101\n      tag_50\n      jump\t// in\n    tag_101:\n        /* \"#utility.yul\":2312:2431   */\n    tag_100:\n        /* \"#utility.yul\":2470:2471   */\n      0x00\n        /* \"#utility.yul\":2495:2548   */\n      tag_102\n        /* \"#utility.yul\":2540:2547   */\n      dup5\n        /* \"#utility.yul\":2531:2537   */\n      dup3\n        /* \"#utility.yul\":2520:2529   */\n      dup6\n        /* \"#utility.yul\":2516:2538   */\n      add\n        /* \"#utility.yul\":2495:2548   */\n      tag_58\n      jump\t// in\n    tag_102:\n        /* \"#utility.yul\":2485:2548   */\n      swap2\n      pop\n        /* \"#utility.yul\":2441:2558   */\n      pop\n        /* \"#utility.yul\":2236:2565   */\n      swap3\n      swap2\n      pop\n      pop\n      jump\t// out\n        /* \"#utility.yul\":2571:2661   */\n    tag_59:\n        /* \"#utility.yul\":2605:2612   */\n      0x00\n        /* \"#utility.yul\":2648:2653   */\n      dup2\n        /* \"#utility.yul\":2641:2654   */\n      iszero\n        /* \"#utility.yul\":2634:2655   */\n      iszero\n        /* \"#utility.yul\":2623:2655   */\n      swap1\n      pop\n        /* \"#utility.yul\":2571:2661   */\n      swap2\n      swap1\n      pop\n      jump\t// out\n        /* \"#utility.yul\":2667:2776   */\n    tag_60:\n        /* \"#utility.yul\":2748:2769   */\n      tag_105\n        /* \"#utility.yul\":2763:2768   */\n      dup2\n        /* \"#utility.yul\":2748:2769   */\n      tag_59\n      jump\t// in\n    tag_105:\n        /* \"#utility.yul\":2743:2746   */\n      dup3\n        /* \"#utility.yul\":2736:2770   */\n      mstore\n        /* \"#utility.yul\":2667:2776   */\n      pop\n      pop\n      jump\t// out\n        /* \"#utility.yul\":2782:2992   */\n    tag_27:\n        /* \"#utility.yul\":2869:2873   */\n      0x00\n        /* \"#utility.yul\":2907:2909   */\n      0x20\n        /* \"#utility.yul\":2896:2905   */\n      dup3\n        /* \"#utility.yul\":2892:2910   */\n      add\n        /* \"#utility.yul\":2884:2910   */\n      swap1\n      pop\n        /* \"#utility.yul\":2920:2985   */\n      tag_107\n        /* \"#utility.yul\":2982:2983   */\n      0x00\n        /* \"#utility.yul\":2971:2980   */\n      dup4\n        /* \"#utility.yul\":2967:2984   */\n      add\n        /* \"#utility.yul\":2958:2964   */\n      dup5\n        /* \"#utility.yul\":2920:2985   */\n      tag_60\n      jump\t// in\n    tag_107:\n        /* \"#utility.yul\":2782:2992   */\n      swap3\n      swap2\n      pop\n      pop\n      jump\t// out\n        /* \"#utility.yul\":2998:3167   */\n    tag_61:\n        /* \"#utility.yul\":3082:3093   */\n      0x00\n        /* \"#utility.yul\":3116:3122   */\n      dup3\n        /* \"#utility.yul\":3111:3114   */\n      dup3\n        /* \"#utility.yul\":3104:3123   */\n      mstore\n        /* \"#utility.yul\":3156:3160   */\n      0x20\n        /* \"#utility.yul\":3151:3154   */\n      dup3\n        /* \"#utility.yul\":3147:3161   */\n      add\n        /* \"#utility.yul\":3132:3161   */\n      swap1\n      pop\n        /* \"#utility.yul\":2998:3167   */\n      swap3\n      swap2\n      pop\n      pop\n      jump\t// out\n        /* \"#utility.yul\":3173:3337   */\n    tag_62:\n        /* \"#utility.yul\":3313:3329   */\n      0x4e6f2052652d656e7472616e6379000000000000000000000000000000000000\n        /* \"#utility.yul\":3309:3310   */\n      0x00\n        /* \"#utility.yul\":3301:3307   */\n      dup3\n        /* \"#utility.yul\":3297:3311   */\n      add\n        /* \"#utility.yul\":3290:3330   */\n      mstore\n        /* \"#utility.yul\":3173:3337   */\n      pop\n      jump\t// out\n        /* \"#utility.yul\":3343:3709   */\n    tag_63:\n        /* \"#utility.yul\":3485:3488   */\n      0x00\n        /* \"#utility.yul\":3506:3573   */\n      tag_111\n        /* \"#utility.yul\":3570:3572   */\n      0x0e\n        /* \"#utility.yul\":3565:3568   */\n      dup4\n        /* \"#utility.yul\":3506:3573   */\n      tag_61\n      jump\t// in\n    tag_111:\n        /* \"#utility.yul\":3499:3573   */\n      swap2\n      pop\n        /* \"#utility.yul\":3582:3675   */\n      tag_112\n        /* \"#utility.yul\":3671:3674   */\n      dup3\n        /* \"#utility.yul\":3582:3675   */\n      tag_62\n      jump\t// in\n    tag_112:\n        /* \"#utility.yul\":3700:3702   */\n      0x20\n        /* \"#utility.yul\":3695:3698   */\n      dup3\n        /* \"#utility.yul\":3691:3703   */\n      add\n        /* \"#utility.yul\":3684:3703   */\n      swap1\n      pop\n        /* \"#utility.yul\":3343:3709   */\n      swap2\n      swap1\n      pop\n      jump\t// out\n        /* \"#utility.yul\":3715:4134   */\n    tag_31:\n        /* \"#utility.yul\":3881:3885   */\n      0x00\n        /* \"#utility.yul\":3919:3921   */\n      0x20\n        /* \"#utility.yul\":3908:3917   */\n      dup3\n        /* \"#utility.yul\":3904:3922   */\n      add\n        /* \"#utility.yul\":3896:3922   */\n      swap1\n      pop\n        /* \"#utility.yul\":3968:3977   */\n      dup2\n        /* \"#utility.yul\":3962:3966   */\n      dup2\n        /* \"#utility.yul\":3958:3978   */\n      sub\n        /* \"#utility.yul\":3954:3955   */\n      0x00\n        /* \"#utility.yul\":3943:3952   */\n      dup4\n        /* \"#utility.yul\":3939:3956   */\n      add\n        /* \"#utility.yul\":3932:3979   */\n      mstore\n        /* \"#utility.yul\":3996:4127   */\n      tag_114\n        /* \"#utility.yul\":4122:4126   */\n      dup2\n        /* \"#utility.yul\":3996:4127   */\n      tag_63\n      jump\t// in\n    tag_114:\n        /* \"#utility.yul\":3988:4127   */\n      swap1\n      pop\n        /* \"#utility.yul\":3715:4134   */\n      swap2\n      swap1\n      pop\n      jump\t// out\n        /* \"#utility.yul\":4140:4320   */\n    tag_64:\n        /* \"#utility.yul\":4188:4265   */\n      0x4e487b7100000000000000000000000000000000000000000000000000000000\n        /* \"#utility.yul\":4185:4186   */\n      0x00\n        /* \"#utility.yul\":4178:4266   */\n      mstore\n        /* \"#utility.yul\":4285:4289   */\n      0x11\n        /* \"#utility.yul\":4282:4283   */\n      0x04\n        /* \"#utility.yul\":4275:4290   */\n      mstore\n        /* \"#utility.yul\":4309:4313   */\n      0x24\n        /* \"#utility.yul\":4306:4307   */\n      0x00\n        /* \"#utility.yul\":4299:4314   */\n      revert\n        /* \"#utility.yul\":4326:4520   */\n    tag_34:\n        /* \"#utility.yul\":4366:4370   */\n      0x00\n        /* \"#utility.yul\":4386:4406   */\n      tag_117\n        /* \"#utility.yul\":4404:4405   */\n      dup3\n        /* \"#utility.yul\":4386:4406   */\n      tag_47\n      jump\t// in\n    tag_117:\n        /* \"#utility.yul\":4381:4406   */\n      swap2\n      pop\n        /* \"#utility.yul\":4420:4440   */\n      tag_118\n        /* \"#utility.yul\":4438:4439   */\n      dup4\n        /* \"#utility.yul\":4420:4440   */\n      tag_47\n      jump\t// in\n    tag_118:\n        /* \"#utility.yul\":4415:4440   */\n      swap3\n      pop\n        /* \"#utility.yul\":4464:4465   */\n      dup3\n        /* \"#utility.yul\":4461:4462   */\n      dup3\n        /* \"#utility.yul\":4457:4466   */\n      sub\n        /* \"#utility.yul\":4449:4466   */\n      swap1\n      pop\n        /* \"#utility.yul\":4488:4489   */\n      dup2\n        /* \"#utility.yul\":4482:4486   */\n      dup2\n        /* \"#utility.yul\":4479:4490   */\n      gt\n        /* \"#utility.yul\":4476:4513   */\n      iszero\n      tag_119\n      jumpi\n        /* \"#utility.yul\":4493:4511   */\n      tag_120\n      tag_64\n      jump\t// in\n    tag_120:\n        /* \"#utility.yul\":4476:4513   */\n    tag_119:\n        /* \"#utility.yul\":4326:4520   */\n      swap3\n      swap2\n      pop\n      pop\n      jump\t// out\n        /* \"#utility.yul\":4526:4685   */\n    tag_65:\n        /* \"#utility.yul\":4666:4677   */\n      0x4e6f74204f776e65720000000000000000000000000000000000000000000000\n        /* \"#utility.yul\":4662:4663   */\n      0x00\n        /* \"#utility.yul\":4654:4660   */\n      dup3\n        /* \"#utility.yul\":4650:4664   */\n      add\n        /* \"#utility.yul\":4643:4678   */\n      mstore\n        /* \"#utility.yul\":4526:4685   */\n      pop\n      jump\t// out\n        /* \"#utility.yul\":4691:5056   */\n    tag_66:\n        /* \"#utility.yul\":4833:4836   */\n      0x00\n        /* \"#utility.yul\":4854:4920   */\n      tag_123\n        /* \"#utility.yul\":4918:4919   */\n      0x09\n        /* \"#utility.yul\":4913:4916   */\n      dup4\n        /* \"#utility.yul\":4854:4920   */\n      tag_61\n      jump\t// in\n    tag_123:\n        /* \"#utility.yul\":4847:4920   */\n      swap2\n      pop\n        /* \"#utility.yul\":4929:5022   */\n      tag_124\n        /* \"#utility.yul\":5018:5021   */\n      dup3\n        /* \"#utility.yul\":4929:5022   */\n      tag_65\n      jump\t// in\n    tag_124:\n        /* \"#utility.yul\":5047:5049   */\n      0x20\n        /* \"#utility.yul\":5042:5045   */\n      dup3\n        /* \"#utility.yul\":5038:5050   */\n      add\n        /* \"#utility.yul\":5031:5050   */\n      swap1\n      pop\n        /* \"#utility.yul\":4691:5056   */\n      swap2\n      swap1\n      pop\n      jump\t// out\n        /* \"#utility.yul\":5062:5481   */\n    tag_41:\n        /* \"#utility.yul\":5228:5232   */\n      0x00\n        /* \"#utility.yul\":5266:5268   */\n      0x20\n        /* \"#utility.yul\":5255:5264   */\n      dup3\n        /* \"#utility.yul\":5251:5269   */\n      add\n        /* \"#utility.yul\":5243:5269   */\n      swap1\n      pop\n        /* \"#utility.yul\":5315:5324   */\n      dup2\n        /* \"#utility.yul\":5309:5313   */\n      dup2\n        /* \"#utility.yul\":5305:5325   */\n      sub\n        /* \"#utility.yul\":5301:5302   */\n      0x00\n        /* \"#utility.yul\":5290:5299   */\n      dup4\n        /* \"#utility.yul\":5286:5303   */\n      add\n        /* \"#utility.yul\":5279:5326   */\n      mstore\n        /* \"#utility.yul\":5343:5474   */\n      tag_126\n        /* \"#utility.yul\":5469:5473   */\n      dup2\n        /* \"#utility.yul\":5343:5474   */\n      tag_66\n      jump\t// in\n    tag_126:\n        /* \"#utility.yul\":5335:5474   */\n      swap1\n      pop\n        /* \"#utility.yul\":5062:5481   */\n      swap2\n      swap1\n      pop\n      jump\t// out\n        /* \"#utility.yul\":5487:5652   */\n    tag_67:\n        /* \"#utility.yul\":5627:5644   */\n      0x496e76616c696420416464726573730000000000000000000000000000000000\n        /* \"#utility.yul\":5623:5624   */\n      0x00\n        /* \"#utility.yul\":5615:5621   */\n      dup3\n        /* \"#utility.yul\":5611:5625   */\n      add\n        /* \"#utility.yul\":5604:5645   */\n      mstore\n        /* \"#utility.yul\":5487:5652   */\n      pop\n      jump\t// out\n        /* \"#utility.yul\":5658:6024   */\n    tag_68:\n        /* \"#utility.yul\":5800:5803   */\n      0x00\n        /* \"#utility.yul\":5821:5888   */\n      tag_129\n        /* \"#utility.yul\":5885:5887   */\n      0x0f\n        /* \"#utility.yul\":5880:5883   */\n      dup4\n        /* \"#utility.yul\":5821:5888   */\n      tag_61\n      jump\t// in\n    tag_129:\n        /* \"#utility.yul\":5814:5888   */\n      swap2\n      pop\n        /* \"#utility.yul\":5897:5990   */\n      tag_130\n        /* \"#utility.yul\":5986:5989   */\n      dup3\n        /* \"#utility.yul\":5897:5990   */\n      tag_67\n      jump\t// in\n    tag_130:\n        /* \"#utility.yul\":6015:6017   */\n      0x20\n        /* \"#utility.yul\":6010:6013   */\n      dup3\n        /* \"#utility.yul\":6006:6018   */\n      add\n        /* \"#utility.yul\":5999:6018   */\n      swap1\n      pop\n        /* \"#utility.yul\":5658:6024   */\n      swap2\n      swap1\n      pop\n      jump\t// out\n        /* \"#utility.yul\":6030:6449   */\n    tag_45:\n        /* \"#utility.yul\":6196:6200   */\n      0x00\n        /* \"#utility.yul\":6234:6236   */\n      0x20\n        /* \"#utility.yul\":6223:6232   */\n      dup3\n        /* \"#utility.yul\":6219:6237   */\n      add\n        /* \"#utility.yul\":6211:6237   */\n      swap1\n      pop\n        /* \"#utility.yul\":6283:6292   */\n      dup2\n        /* \"#utility.yul\":6277:6281   */\n      dup2\n        /* \"#utility.yul\":6273:6293   */\n      sub\n        /* \"#utility.yul\":6269:6270   */\n      0x00\n        /* \"#utility.yul\":6258:6267   */\n      dup4\n        /* \"#utility.yul\":6254:6271   */\n      add\n        /* \"#utility.yul\":6247:6294   */\n      mstore\n        /* \"#utility.yul\":6311:6442   */\n      tag_132\n        /* \"#utility.yul\":6437:6441   */\n      dup2\n        /* \"#utility.yul\":6311:6442   */\n      tag_68\n      jump\t// in\n    tag_132:\n        /* \"#utility.yul\":6303:6442   */\n      swap1\n      pop\n        /* \"#utility.yul\":6030:6449   */\n      swap2\n      swap1\n      pop\n      jump\t// out\n\n    auxdata: 0xa2646970667358221220732953d15d6e76613c9b72460ce1f290ced61562d2c50fb9354279e8f051ea9064736f6c63430008160033\n}\n",
				"bytecode": {
					"linkReferences": {},
					"object": "6080604052600a600155348015610014575f80fd5b50335f806101000a81548173ffffffffffffffffffffffffffffffffffffffff021916908373ffffffffffffffffffffffffffffffffffffffff160217905550610650806100615f395ff3fe608060405234801561000f575f80fd5b5060043610610055575f3560e01c80630c55699c146100595780633a9ebefd146100775780638da5cb5b14610093578063a6f9dae1146100b1578063cf309012146100cd575b5f80fd5b6100616100eb565b60405161006e9190610320565b60405180910390f35b610091600480360381019061008c9190610367565b6100f1565b005b61009b610194565b6040516100a891906103d1565b60405180910390f35b6100cb60048036038101906100c69190610414565b6101b7565b005b6100d56102f6565b6040516100e29190610459565b60405180910390f35b60015481565b60025f9054906101000a900460ff1615610140576040517f08c379a0000000000000000000000000000000000000000000000000000000008152600401610137906104cc565b60405180910390fd5b600160025f6101000a81548160ff0219169083151502179055506001805f82825461016b9190610517565b9250508190555060018111156101915761019060018261018b9190610517565b6100f1565b5b50565b5f8054906101000a900473ffffffffffffffffffffffffffffffffffffffff1681565b5f8054906101000a900473ffffffffffffffffffffffffffffffffffffffff1673ffffffffffffffffffffffffffffffffffffffff163373ffffffffffffffffffffffffffffffffffffffff1614610244576040517f08c379a000000000000000000000000000000000000000000000000000000000815260040161023b90610594565b60405180910390fd5b805f73ffffffffffffffffffffffffffffffffffffffff168173ffffffffffffffffffffffffffffffffffffffff16036102b3576040517f08c379a00000000000000000000000000000000000000000000000000000000081526004016102aa906105fc565b60405180910390fd5b815f806101000a81548173ffffffffffffffffffffffffffffffffffffffff021916908373ffffffffffffffffffffffffffffffffffffffff1602179055505050565b60025f9054906101000a900460ff1681565b5f819050919050565b61031a81610308565b82525050565b5f6020820190506103335f830184610311565b92915050565b5f80fd5b61034681610308565b8114610350575f80fd5b50565b5f813590506103618161033d565b92915050565b5f6020828403121561037c5761037b610339565b5b5f61038984828501610353565b91505092915050565b5f73ffffffffffffffffffffffffffffffffffffffff82169050919050565b5f6103bb82610392565b9050919050565b6103cb816103b1565b82525050565b5f6020820190506103e45f8301846103c2565b92915050565b6103f3816103b1565b81146103fd575f80fd5b50565b5f8135905061040e816103ea565b92915050565b5f6020828403121561042957610428610339565b5b5f61043684828501610400565b91505092915050565b5f8115159050919050565b6104538161043f565b82525050565b5f60208201905061046c5f83018461044a565b92915050565b5f82825260208201905092915050565b7f4e6f2052652d656e7472616e63790000000000000000000000000000000000005f82015250565b5f6104b6600e83610472565b91506104c182610482565b602082019050919050565b5f6020820190508181035f8301526104e3816104aa565b9050919050565b7f4e487b71000000000000000000000000000000000000000000000000000000005f52601160045260245ffd5b5f61052182610308565b915061052c83610308565b9250828203905081811115610544576105436104ea565b5b92915050565b7f4e6f74204f776e657200000000000000000000000000000000000000000000005f82015250565b5f61057e600983610472565b91506105898261054a565b602082019050919050565b5f6020820190508181035f8301526105ab81610572565b9050919050565b7f496e76616c6964204164647265737300000000000000000000000000000000005f82015250565b5f6105e6600f83610472565b91506105f1826105b2565b602082019050919050565b5f6020820190508181035f830152610613816105da565b905091905056fea2646970667358221220732953d15d6e76613c9b72460ce1f290ced61562d2c50fb9354279e8f051ea9064736f6c63430008160033",
					"opcodes": "PUSH1 0x80 PUSH1 0x40 MSTORE PUSH1 0xA PUSH1 0x1 SSTORE CALLVALUE DUP1 ISZERO PUSH2 0x14 JUMPI PUSH0 DUP1 REVERT JUMPDEST POP CALLER PUSH0 DUP1 PUSH2 0x100 EXP DUP2 SLOAD DUP2 PUSH20 0xFFFFFFFFFFFFFFFFFFFFFFFFFFFFFFFFFFFFFFFF MUL NOT AND SWAP1 DUP4 PUSH20 0xFFFFFFFFFFFFFFFFFFFFFFFFFFFFFFFFFFFFFFFF AND MUL OR SWAP1 SSTORE POP PUSH2 0x650 DUP1 PUSH2 0x61 PUSH0 CODECOPY PUSH0 RETURN INVALID PUSH1 0x80 PUSH1 0x40 MSTORE CALLVALUE DUP1 ISZERO PUSH2 0xF JUMPI PUSH0 DUP1 REVERT JUMPDEST POP PUSH1 0x4 CALLDATASIZE LT PUSH2 0x55 JUMPI PUSH0 CALLDATALOAD PUSH1 0xE0 SHR DUP1 PUSH4 0xC55699C EQ PUSH2 0x59 JUMPI DUP1 PUSH4 0x3A9EBEFD EQ PUSH2 0x77 JUMPI DUP1 PUSH4 0x8DA5CB5B EQ PUSH2 0x93 JUMPI DUP1 PUSH4 0xA6F9DAE1 EQ PUSH2 0xB1 JUMPI DUP1 PUSH4 0xCF309012 EQ PUSH2 0xCD JUMPI JUMPDEST PUSH0 DUP1 REVERT JUMPDEST PUSH2 0x61 PUSH2 0xEB JUMP JUMPDEST PUSH1 0x40 MLOAD PUSH2 0x6E SWAP2 SWAP1 PUSH2 0x320 JUMP JUMPDEST PUSH1 0x40 MLOAD DUP1 SWAP2 SUB SWAP1 RETURN JUMPDEST PUSH2 0x91 PUSH1 0x4 DUP1 CALLDATASIZE SUB DUP2 ADD SWAP1 PUSH2 0x8C SWAP2 SWAP1 PUSH2 0x367 JUMP JUMPDEST PUSH2 0xF1 JUMP JUMPDEST STOP JUMPDEST PUSH2 0x9B PUSH2 0x194 JUMP JUMPDEST PUSH1 0x40 MLOAD PUSH2 0xA8 SWAP2 SWAP1 PUSH2 0x3D1 JUMP JUMPDEST PUSH1 0x40 MLOAD DUP1 SWAP2 SUB SWAP1 RETURN JUMPDEST PUSH2 0xCB PUSH1 0x4 DUP1 CALLDATASIZE SUB DUP2 ADD SWAP1 PUSH2 0xC6 SWAP2 SWAP1 PUSH2 0x414 JUMP JUMPDEST PUSH2 0x1B7 JUMP JUMPDEST STOP JUMPDEST PUSH2 0xD5 PUSH2 0x2F6 JUMP JUMPDEST PUSH1 0x40 MLOAD PUSH2 0xE2 SWAP2 SWAP1 PUSH2 0x459 JUMP JUMPDEST PUSH1 0x40 MLOAD DUP1 SWAP2 SUB SWAP1 RETURN JUMPDEST PUSH1 0x1 SLOAD DUP2 JUMP JUMPDEST PUSH1 0x2 PUSH0 SWAP1 SLOAD SWAP1 PUSH2 0x100 EXP SWAP1 DIV PUSH1 0xFF AND ISZERO PUSH2 0x140 JUMPI PUSH1 0x40 MLOAD PUSH32 0x8C379A000000000000000000000000000000000000000000000000000000000 DUP2 MSTORE PUSH1 0x4 ADD PUSH2 0x137 SWAP1 PUSH2 0x4CC JUMP JUMPDEST PUSH1 0x40 MLOAD DUP1 SWAP2 SUB SWAP1 REVERT JUMPDEST PUSH1 0x1 PUSH1 0x2 PUSH0 PUSH2 0x100 EXP DUP2 SLOAD DUP2 PUSH1 0xFF MUL NOT AND SWAP1 DUP4 ISZERO ISZERO MUL OR SWAP1 SSTORE POP PUSH1 0x1 DUP1 PUSH0 DUP3 DUP3 SLOAD PUSH2 0x16B SWAP2 SWAP1 PUSH2 0x517 JUMP JUMPDEST SWAP3 POP POP DUP2 SWAP1 SSTORE POP PUSH1 0x1 DUP2 GT ISZERO PUSH2 0x191 JUMPI PUSH2 0x190 PUSH1 0x1 DUP3 PUSH2 0x18B SWAP2 SWAP1 PUSH2 0x517 JUMP JUMPDEST PUSH2 0xF1 JUMP JUMPDEST JUMPDEST POP JUMP JUMPDEST PUSH0 DUP1 SLOAD SWAP1 PUSH2 0x100 EXP SWAP1 DIV PUSH20 0xFFFFFFFFFFFFFFFFFFFFFFFFFFFFFFFFFFFFFFFF AND DUP2 JUMP JUMPDEST PUSH0 DUP1 SLOAD SWAP1 PUSH2 0x100 EXP SWAP1 DIV PUSH20 0xFFFFFFFFFFFFFFFFFFFFFFFFFFFFFFFFFFFFFFFF AND PUSH20 0xFFFFFFFFFFFFFFFFFFFFFFFFFFFFFFFFFFFFFFFF AND CALLER PUSH20 0xFFFFFFFFFFFFFFFFFFFFFFFFFFFFFFFFFFFFFFFF AND EQ PUSH2 0x244 JUMPI PUSH1 0x40 MLOAD PUSH32 0x8C379A000000000000000000000000000000000000000000000000000000000 DUP2 MSTORE PUSH1 0x4 ADD PUSH2 0x23B SWAP1 PUSH2 0x594 JUMP JUMPDEST PUSH1 0x40 MLOAD DUP1 SWAP2 SUB SWAP1 REVERT JUMPDEST DUP1 PUSH0 PUSH20 0xFFFFFFFFFFFFFFFFFFFFFFFFFFFFFFFFFFFFFFFF AND DUP2 PUSH20 0xFFFFFFFFFFFFFFFFFFFFFFFFFFFFFFFFFFFFFFFF AND SUB PUSH2 0x2B3 JUMPI PUSH1 0x40 MLOAD PUSH32 0x8C379A000000000000000000000000000000000000000000000000000000000 DUP2 MSTORE PUSH1 0x4 ADD PUSH2 0x2AA SWAP1 PUSH2 0x5FC JUMP JUMPDEST PUSH1 0x40 MLOAD DUP1 SWAP2 SUB SWAP1 REVERT JUMPDEST DUP2 PUSH0 DUP1 PUSH2 0x100 EXP DUP2 SLOAD DUP2 PUSH20 0xFFFFFFFFFFFFFFFFFFFFFFFFFFFFFFFFFFFFFFFF MUL NOT AND SWAP1 DUP4 PUSH20 0xFFFFFFFFFFFFFFFFFFFFFFFFFFFFFFFFFFFFFFFF AND MUL OR SWAP1 SSTORE POP POP POP JUMP JUMPDEST PUSH1 0x2 PUSH0 SWAP1 SLOAD SWAP1 PUSH2 0x100 EXP SWAP1 DIV PUSH1 0xFF AND DUP2 JUMP JUMPDEST PUSH0 DUP2 SWAP1 POP SWAP2 SWAP1 POP JUMP JUMPDEST PUSH2 0x31A DUP2 PUSH2 0x308 JUMP JUMPDEST DUP3 MSTORE POP POP JUMP JUMPDEST PUSH0 PUSH1 0x20 DUP3 ADD SWAP1 POP PUSH2 0x333 PUSH0 DUP4 ADD DUP5 PUSH2 0x311 JUMP JUMPDEST SWAP3 SWAP2 POP POP JUMP JUMPDEST PUSH0 DUP1 REVERT JUMPDEST PUSH2 0x346 DUP2 PUSH2 0x308 JUMP JUMPDEST DUP2 EQ PUSH2 0x350 JUMPI PUSH0 DUP1 REVERT JUMPDEST POP JUMP JUMPDEST PUSH0 DUP2 CALLDATALOAD SWAP1 POP PUSH2 0x361 DUP2 PUSH2 0x33D JUMP JUMPDEST SWAP3 SWAP2 POP POP JUMP JUMPDEST PUSH0 PUSH1 0x20 DUP3 DUP5 SUB SLT ISZERO PUSH2 0x37C JUMPI PUSH2 0x37B PUSH2 0x339 JUMP JUMPDEST JUMPDEST PUSH0 PUSH2 0x389 DUP5 DUP3 DUP6 ADD PUSH2 0x353 JUMP JUMPDEST SWAP2 POP POP SWAP3 SWAP2 POP POP JUMP JUMPDEST PUSH0 PUSH20 0xFFFFFFFFFFFFFFFFFFFFFFFFFFFFFFFFFFFFFFFF DUP3 AND SWAP1 POP SWAP2 SWAP1 POP JUMP JUMPDEST PUSH0 PUSH2 0x3BB DUP3 PUSH2 0x392 JUMP JUMPDEST SWAP1 POP SWAP2 SWAP1 POP JUMP JUMPDEST PUSH2 0x3CB DUP2 PUSH2 0x3B1 JUMP JUMPDEST DUP3 MSTORE POP POP JUMP JUMPDEST PUSH0 PUSH1 0x20 DUP3 ADD SWAP1 POP PUSH2 0x3E4 PUSH0 DUP4 ADD DUP5 PUSH2 0x3C2 JUMP JUMPDEST SWAP3 SWAP2 POP POP JUMP JUMPDEST PUSH2 0x3F3 DUP2 PUSH2 0x3B1 JUMP JUMPDEST DUP2 EQ PUSH2 0x3FD JUMPI PUSH0 DUP1 REVERT JUMPDEST POP JUMP JUMPDEST PUSH0 DUP2 CALLDATALOAD SWAP1 POP PUSH2 0x40E DUP2 PUSH2 0x3EA JUMP JUMPDEST SWAP3 SWAP2 POP POP JUMP JUMPDEST PUSH0 PUSH1 0x20 DUP3 DUP5 SUB SLT ISZERO PUSH2 0x429 JUMPI PUSH2 0x428 PUSH2 0x339 JUMP JUMPDEST JUMPDEST PUSH0 PUSH2 0x436 DUP5 DUP3 DUP6 ADD PUSH2 0x400 JUMP JUMPDEST SWAP2 POP POP SWAP3 SWAP2 POP POP JUMP JUMPDEST PUSH0 DUP2 ISZERO ISZERO SWAP1 POP SWAP2 SWAP1 POP JUMP JUMPDEST PUSH2 0x453 DUP2 PUSH2 0x43F JUMP JUMPDEST DUP3 MSTORE POP POP JUMP JUMPDEST PUSH0 PUSH1 0x20 DUP3 ADD SWAP1 POP PUSH2 0x46C PUSH0 DUP4 ADD DUP5 PUSH2 0x44A JUMP JUMPDEST SWAP3 SWAP2 POP POP JUMP JUMPDEST PUSH0 DUP3 DUP3 MSTORE PUSH1 0x20 DUP3 ADD SWAP1 POP SWAP3 SWAP2 POP POP JUMP JUMPDEST PUSH32 0x4E6F2052652D656E7472616E6379000000000000000000000000000000000000 PUSH0 DUP3 ADD MSTORE POP JUMP JUMPDEST PUSH0 PUSH2 0x4B6 PUSH1 0xE DUP4 PUSH2 0x472 JUMP JUMPDEST SWAP2 POP PUSH2 0x4C1 DUP3 PUSH2 0x482 JUMP JUMPDEST PUSH1 0x20 DUP3 ADD SWAP1 POP SWAP2 SWAP1 POP JUMP JUMPDEST PUSH0 PUSH1 0x20 DUP3 ADD SWAP1 POP DUP2 DUP2 SUB PUSH0 DUP4 ADD MSTORE PUSH2 0x4E3 DUP2 PUSH2 0x4AA JUMP JUMPDEST SWAP1 POP SWAP2 SWAP1 POP JUMP JUMPDEST PUSH32 0x4E487B7100000000000000000000000000000000000000000000000000000000 PUSH0 MSTORE PUSH1 0x11 PUSH1 0x4 MSTORE PUSH1 0x24 PUSH0 REVERT JUMPDEST PUSH0 PUSH2 0x521 DUP3 PUSH2 0x308 JUMP JUMPDEST SWAP2 POP PUSH2 0x52C DUP4 PUSH2 0x308 JUMP JUMPDEST SWAP3 POP DUP3 DUP3 SUB SWAP1 POP DUP2 DUP2 GT ISZERO PUSH2 0x544 JUMPI PUSH2 0x543 PUSH2 0x4EA JUMP JUMPDEST JUMPDEST SWAP3 SWAP2 POP POP JUMP JUMPDEST PUSH32 0x4E6F74204F776E65720000000000000000000000000000000000000000000000 PUSH0 DUP3 ADD MSTORE POP JUMP JUMPDEST PUSH0 PUSH2 0x57E PUSH1 0x9 DUP4 PUSH2 0x472 JUMP JUMPDEST SWAP2 POP PUSH2 0x589 DUP3 PUSH2 0x54A JUMP JUMPDEST PUSH1 0x20 DUP3 ADD SWAP1 POP SWAP2 SWAP1 POP JUMP JUMPDEST PUSH0 PUSH1 0x20 DUP3 ADD SWAP1 POP DUP2 DUP2 SUB PUSH0 DUP4 ADD MSTORE PUSH2 0x5AB DUP2 PUSH2 0x572 JUMP JUMPDEST SWAP1 POP SWAP2 SWAP1 POP JUMP JUMPDEST PUSH32 0x496E76616C696420416464726573730000000000000000000000000000000000 PUSH0 DUP3 ADD MSTORE POP JUMP JUMPDEST PUSH0 PUSH2 0x5E6 PUSH1 0xF DUP4 PUSH2 0x472 JUMP JUMPDEST SWAP2 POP PUSH2 0x5F1 DUP3 PUSH2 0x5B2 JUMP JUMPDEST PUSH1 0x20 DUP3 ADD SWAP1 POP SWAP2 SWAP1 POP JUMP JUMPDEST PUSH0 PUSH1 0x20 DUP3 ADD SWAP1 POP DUP2 DUP2 SUB PUSH0 DUP4 ADD MSTORE PUSH2 0x613 DUP2 PUSH2 0x5DA JUMP JUMPDEST SWAP1 POP SWAP2 SWAP1 POP JUMP INVALID LOG2 PUSH5 0x6970667358 0x22 SLT KECCAK256 PUSH20 0x2953D15D6E76613C9B72460CE1F290CED61562D2 0xC5 0xF 0xB9 CALLDATALOAD TIMESTAMP PUSH26 0xE8F051EA9064736F6C6343000816003300000000000000000000 "
				},
				"gasEstimates": {
					"creation": {
						"codeDepositCost": "323200",
						"executionCost": "46731",
						"totalCost": "369931"
					},
					"external": {
						"changeOwner(address)": "26964",
						"decrement(uint256)": "infinite",
						"locked()": "2532",
						"owner()": "2527",
						"x()": "2403"
					}
				},
				"methodIdentifiers": {
					"changeOwner(address)": "a6f9dae1",
					"decrement(uint256)": "3a9ebefd",
					"locked()": "cf309012",
					"owner()": "8da5cb5b",
					"x()": "0c55699c"
				}
			},
			"storageLayout": {
				"storage": [
					{
						"astId": 3,
						"contract": "Daulat-Projects/Modifiers.sol:FunctionModifier",
						"label": "owner",
						"offset": 0,
						"slot": "0",
						"type": "t_address"
					},
					{
						"astId": 6,
						"contract": "Daulat-Projects/Modifiers.sol:FunctionModifier",
						"label": "x",
						"offset": 0,
						"slot": "1",
						"type": "t_uint256"
					},
					{
						"astId": 8,
						"contract": "Daulat-Projects/Modifiers.sol:FunctionModifier",
						"label": "locked",
						"offset": 0,
						"slot": "2",
						"type": "t_bool"
					}
				],
				"types": {
					"t_address": {
						"encoding": "inplace",
						"label": "address",
						"numberOfBytes": "20"
					},
					"t_bool": {
						"encoding": "inplace",
						"label": "bool",
						"numberOfBytes": "1"
					},
					"t_uint256": {
						"encoding": "inplace",
						"label": "uint256",
						"numberOfBytes": "32"
					}
				}
			},
			"userdoc": {
				"kind": "user",
				"methods": {},
				"version": 1
			}
		}
	}
}